:10008F00C2A58F807F017E001200A0D2A77F057EC0
:01009F000060
:1000A000D3EF9400EE9400400F7DC77C01DCFEDDB1
:0800B000FAEF1F70EB1E80E85F
:0100B8002225
:0A012100C2A7C2A612008FC2A722D7
:0A012B00C2A7D2A612008FC2A722BD
:1000FB007F381201217F0C1201217F061201217F13
:09010B00011201217F8002012193
:1000B90011082050656368696E20536369656E6332
:1000C900652000111930313233343536373839412A
:0600D900424344454600CD
:1000E0001200FBE4F52A7408252AF8E6FF12012B1A
:0B00F000052AE52AC3941040ED80FEB5
:0C0114007F017E267D82DDFEDEFADFF634
:0101200022BC
:03000000020003F8
:0C000300787FE4F6D8FD75812A02004ADF
:10000F000200E0E493A3F8E493A34003F68001F227
:10001F0008DFF48029E493A3F85407240CC8C333F2
:10002F00C4540F4420C8834004F456800146F6DFC1
:10003F00E4800B01020408102040809000B9E47E98
:10004F00019360BCA3FF543F30E509541FFEE493B6
:10005F00A360010ECF54C025E060A840B8E493A37D
:10006F00FAE493A3F8E493A3C8C582C8CAC583CAA8
:10007F00F0A3C8C582C8CAC583CADFE9DEE780BE60
:0100DF000020
:00000001FF
